:020000040800F2
:1000000070130020D5000008852400088F22000806
:1000100000000000000000000000000000000000E0
:10002000000000000000000000000000692500083A
:100030000000000000000000872400088D26000852
:10004000E7000008E7000008E7000008E7000008F4
:10005000E7000008E7000008E7000008E7000008E4
:10006000E70000085D0500086D050008E7000008CE
:10007000E7000008E7000008E7000008E7000008C4
:10008000E70000082127000800000000E700000842
:10009000E7000008E7000008E7000008E7000008A4
:1000A000E7000008E7000008E70000082D2C000822
:1000B000E700000800000000E7000008044885464B
:1000C00000F090F800480047E92C0008C046C04600
:1000D000701300200448804704480047FEE7FEE70D
:1000E000FEE7FEE7FEE7FEE71D270008BD0000086B
:1000F00030B50B46014600202022012409E00D46C0
:10010000D5409D4205D31D469540491B2546954047
:1001100040191546521E002DF1DC30BDF0B51FB45C
:100120000646002082B005464024019100901BE065
:10013000019922460F46304600F020F8049A059BAC
:10014000801A994110D310461946224600F039F81A
:10015000361A8F410197224601200021009F00F0AE
:1001600030F838184D4100902046641E0028DFDC2E
:10017000019B00982946324607B0F0BD10B5202AF1
:1001800004DB0846203AD040002110BD0B46D34086
:10019000D0402024A21A91400843194610BDD2B283
:1001A00001E00270401C491EFBD270470022F6E7B6
:1001B00010B513460A4604461946FFF7F0FF2046DD
:1001C00010BD10B5202A04DB0146203A91400020E2
:1001D00010BD914020239C1A0346E34019439040F0
:1001E00010BD0000064C0125064E05E0E36807CC73
:1001F0002B430C3C98471034B442F7D3FFF762FF0F
:10020000F42E0008142F000810B50146406A826BD6
:1002100050231A420AD1816B012252021143816399
:100220000168CA681205920F05D020E0006B026BCE
:100230000846904710BD827E002A18D10A6812072E
:1002400015D58A6853070122002B09DB4B680C2463
:10025000A3434B60816B130299431143816306E012
:10026000816B202319438163C16B1143C16300F08B
:100270008FFC10BD10B5406A816B40221143816331
:10028000C16B04221143C16300F0A2FC10BD10B584
:10029000406A00F08DFC10BDF8B5044600200090C7
:1002A000206881688907890F012905D10168C9077C
:1002B0002CD1C168090429D48168154A102611403F
:1002C0000125002915D1816829438160124811490F
:1002D0000068FFF70DFF00E0401E00900028FBD1F2
:1002E00001F004F907460CE001F000F9C01B0228F8
:1002F00007D9A06B3043A063E06B2843E063012083
:10030000F8BD20680068C043C007EDD10020F8BDEB
:100310001700008040420F0040000020F3B581B07C
:1003200000251D4C34E001986E00815B1B4800F0F5
:100330001FFB80B2E0800199895B0F1AA0696061A0
:100340001648143801F0B2FF78438010A061216A8A
:10035000E1616269491010184018C60F20620F4809
:100360003946143801F0B9FF60788642206901D01F
:100370004010206101214907E0604118216105D545
:10038000002803DD3146064800F07DF866706D1CDC
:1003900002988542C7D3FEBD000000205808002007
:1003A000C0090020FEB5002200920192029201795C
:1003B0001446027242880B2A46D34218527A002A07
:1003C00042D10D46FF270B3501376A46BD420B4629
:1003D00006D90EE0C6185F1A767A5B1CD6559BB21A
:1003E000AB42F7D313E0C5185E1A6D7A5B1C9555C6
:1003F0009BB2FF2BF7D900237D1AF63905E0C6180A
:10040000EF18767A5B1CD6559BB28B42F7D9917A5E
:10041000012919D1535C012B01D1641CE4B2491CA0
:1004200089B20929F6D3517A6140C9070CD001215C
:10043000545C4D1EAC40037A491C234389B20372BD
:100440000929F5D30120FEBD0020FEBD0021418019
:100450008180C1800170704710B5012101700023B7
:1004600041881C4600290BD0828803460933D35C9F
:10047000521C92B28280FF2A00D98480491E41809A
:100480000470184610BD4288FF2A0ED8C388024661
:1004900009329954C188491C89B2C180FF2901D908
:1004A0000021C1804188491C4180704710B5094A2C
:1004B00050789178D378414010794B4004465840A9
:1004C000002104E05318DB795840491CC9B28C4222
:1004D000F8D810BDD40B0020F8B51048104DC079E5
:1004E000104C0F2802D9202060710DE02E780027D3
:1004F000B04204D0287000F0C5F9002801D067711F
:1005000002E0022060712E700620E070032020714E
:100510002878E07102F04EF8F8BD0000D40B0020FE
:1005200029000020F50B002010B5446A204600F099
:10053000BFFC0120207110BD10B5446A2069042160
:1005400008432061204600F0D4FC0120207110BD3A
:1005500010B5406A00F0C6FC10BD000010B502489E
:1005600000F0BAFD10BD0000840E002010B5034855
:1005700000F0B2FD024800F0AFFD10BD0C0F0020EE
:10058000C80E002010B50446006805494018142123
:10059000FFF7AEFD800020640248E06310BD00005C
:1005A000F8FFFDBF0000024030B5056C0124AC40EF
:1005B000C56B6C60046863604368102B036803D0EC
:1005C00099600068C26030BD9A600068C16030BD4B
:1005D000F8B50026124D134C01271CE01148FFF717
:1005E000E1FE002806D0287800280CD0207AFF28C9
:1005F00005D000E02F700B48FFF72EFF0BE000F056
:100600008FF92E7007E000F08BF9217A0648FFF78A
:100610003AFF0648067060880B28DFD2F8BD00005C
:1006200028000020C0090020CA0A00202A0000205B
:1006300072B6FEE706490020C86106480169042237
:1006400011430161016940221143016170470000BB
:10065000500F002000200240064A0021D1610649C7
:100660000A6902231A430A6148610869402210435B
:1006700008617047500F00200020024010B5054B64
:100680000022DA61044A13690124234313610180C3
:1006900010BD0000500F00200020024010B50B4A92
:1006A0000020D168CB060A4904D5C8690223184343
:1006B000C8611020D3685B0705D5CB6901242343AB
:1006C000CB6104210843D06010BD0000002002402F
:1006D000500F002070B5054600F008FF0646104C8C
:1006E0000AE0681C08D0002D04D000F0FFFE801B3B
:1006F000A84201D9032070BDE068C007F1D1E068CD
:10070000800601D52020E060E068C00602D4E068E1
:10071000400703D5FFF7C2FF012070BD002070BD68
:100720000020024038B5124801F0E4FA00242023EA
:10073000104A21461048009400F058FC0F48C4604D
:10074000046144700B480021283801F0C6FD641C88
:10075000E4B2042CF6D30A4800F02CF9094801F061
:10076000C9FA012292020849054800F037FB38BD5A
:10077000C40D00206C080020700D00200000002037
:10078000300D0020840D002044000020F3B5044605
:1007900021480025017811204001204E81B0002918
:1007A00001D131890818B0803078002810D0012894
:1007B00010D00020706201F0E9FE184A0421184FA1
:1007C000515E3F78506A8BB21278BE469C461CE060
:1007D000144D01E00125ED0601F0E2FEEDE7022AED
:1007E0000DD24019030E7646012E0F4EF35601D15D
:1007F0009E009B195B180D4E6700F35303E00B4BF3
:10080000674666009F53641CE4B2029B9C42E6D399
:1008100002494862FEBD00002900002000000020BF
:100820002C000020ABAAAA0EDC2D00086C080020CA
:1008300038B500210A48009101600A494160012150
:10084000816000F08FFD6946054800F0F3FC044626
:1008500000F040FD002C01D0002038BD012038BD43
:10086000180C002000FC0008044801780448FF2907
:10087000017001D1002101707047000000FC0008E8
:100880002900002010B50B4CFFF7D2FF00280ED036
:1008900000F068FD0848002302782146012000F09E
:1008A00023FD044600F016FD002C01D0002010BDF1
:1008B000012010BD00FC00082900002070B516487A
:1008C0004088002827D015480178002923D1408886
:1008D000F42820D8002529461048FFF7D4FD0E48FB
:1008E000FFF7BAFD064600243046E040C107C90FB5
:1008F00001D06D1CEDB20948FFF7C5FD641C082C42
:10090000F2DBE807C1170548491CFFF7BCFD0121D0
:100910000248FFF7B8FD70BD240C0020AC08002091
:1009200010B500240348FFF797FD641CE4B20B2CBC
:10093000F8D310BDC009002010B50C4948788A785A
:100940004B794240C87850400A791446444088792F
:10095000634058400023921E04E0CC18E4796040C4
:100960005B1CDBB29A42F8DC10BD0000F50B0020E6
:10097000F8B50746407800260D4D0C46042802D3F2
:10098000384601F093FC2146384601F0A6FC0020D1
:100990008100C9194C68B44200D92646AC4200D245
:1009A0002546401CC0B20428F2D370194008F8BD97
:1009B000FFFF0000F8B5054604462035287D0026D7
:1009C000012808D001202875206881688907890FCF
:1009D000012908D101E00220F8BD0168C90738D11A
:1009E000C168090435D4A16BFF2201329143022270
:1009F0001143A163C1688907890F0091C168890803
:100A00008900C1602068816892071143816000F00D
:100A10006DFD07460EE000F069FDC01B022809D9F4
:100A2000A06B0221884310210843A0630020287591
:100A30000120F8BD206880680028ECDB2068C168D0
:100A4000009A1143C160A06B80088000401CA06325
:100A500004E0A06B20210843A06301260020287534
:100A60003046F8BDF8B50025044620340095227DB7
:100A7000012A3BD00122227503689E68760776D44E
:100A80003F4F4E68BE4254D09E6A0F78BA4016431C
:100A90009E620123C26A1B079A421FD0012A1DD001
:100AA000022A1BD0032A19D0042A17D0052A15D0F0
:100AB000062A13D0072A11D002688B685669760778
:100AC000760FB3420AD05369DB08DB00536100683C
:100AD00042690B7A5B075B0F1A4342610868102872
:100AE00006D0112804D0122802D045E00220F8BD1B
:100AF000244A9368102809D011280AD00120000642
:100B0000034393600868102806D035E00120C00533
:100B1000F6E701208005F3E71C481B490068FFF752
:100B2000E7FA0A21484300E0401E00900028FBD16C
:100B300022E0986A0E78B2409043986208681028C4
:100B400003D0112801D0122816D10E498A68102826
:100B500007D0112808D00120000682438A600BE0EC
:100B600005E00120C005F8E701208005F5E7816B6D
:100B70002022114381630125002020752846F8BDFD
:100B8000011000000027014040420F0040000020FB
:100B900010B505488078002804D101214902034896
:100BA000FFF7BCFB10BD0000000000204404002043
:100BB00010B505488078002804D101214902034876
:100BC000FFF7ACFB10BD0000000000204400002037
:100BD00070470000F8B500260446002805D0A06B39
:100BE00025462035002802D007E00120F8BD00206E
:100BF000E0632875204600F0A9F8A06B1022C0061B
:100C0000002870DB2068816849076CD4A16B130150
:100C1000994302231943A16381688907890F012938
:100C200005D10168C9070FD1C16809040CD4C16896
:100C300018239943A3681943C16020680169636858
:100C400089008908194301612068C1683D4B19403A
:100C5000C160207E617E8003C9030843A17E4B03EF
:100C60001843A36A012B02D001231B0300E00023D9
:100C70001843E36818432369022B09D00023184363
:100C80002B79E57E5B0018430123012D02D00AE099
:100C90000423F4E7002927D0A16B20252943A16371
:100CA000E16B1943E163E1690D46FF3DC23D02D0AE
:100CB000256A294308432168CD680543CD60012595
:100CC000E16A2D07A94213D0012911D002290FD0C2
:100CD00003290DD004290BD0052909D0062907D0F6
:100CE000072905D010E028E0012109040843DAE7CC
:100CF00021684D69ED08ED004D6121684D69A78DB2
:100D00007F077F0F3D434D612168C9680E4D294023
:100D1000814207D10020E063A06B80088000401C66
:100D2000A06308E0A06B022188431043A063E06B3E
:100D30001843E06301263046F8BDA06B1043A06362
:100D4000F8E700001902FEFFE7FF3F8370B586B0A9
:100D5000054614216846FFF729FA1C49286888428D
:100D600031D11B498A69401502438A618A69024070
:100D700005924A69000202434A614969002601401E
:100D800005910420009003200190092069460296F5
:100D9000C00600F0FBFA0F480F4C41C480202660CB
:100DA00060604000A0608000E060202020610002C0
:100DB00060610948083C00F0DDF9002801D0FFF728
:100DC00037FC2C63656206B070BD00000024014052
:100DD0000010024008000240840E0020F7B50446CF
:100DE00000680025806840073DD426462036307DC7
:100DF00001280AD001273775607E012807D02046D8
:100E0000FFF74AFA050002D02EE00220FEBDA06BDB
:100E100016490840FF2101310843A0630020E06328
:100E20003075216B12488862216B1248C862216BB1
:100E30001148086321681C2008602068416810225E
:100E4000114341602068C1683943C1602168206B4B
:100E50004031029B019A00F0B7F9206881680422B2
:100E60001143816000E002252846FEBDFEF1FFFF30
:100E7000090200088F0200087502000870B5437966
:100E8000012B13D0012545710223037106683468D4
:100E90003E2393409C430B6849680B439340234394
:100EA0003360057100214171084670BD022070BD9C
:100EB00010B50A480A4C4088002805D00748FFF7BB
:100EC000CBFA2070012003E0022020700020606235
:100ED000A07010210020FFF759FC10BDAC080020C5
:100EE0000000002010B520211020FFF74FFC10BD9E
:100EF0007047704710B501680A68920411D54A6BB3
:100F000092040ED504220271026901231A43026180
:100F10005A034A6301680A681B039A430A60FFF791
:100F2000E7FF10BD70B5040004D02079002500282B
:100F300002D005E0012070BD6571204600F008F880
:100F400002202071256101202071002070BD000069
:100F5000F0B587B0054614216846FFF727F91F4909
:100F60002868884238D11E49CA6948040243CA61C8
:100F7000CA69024005924A69001302434A614969FD
:100F800010260140032000960190002705910920BA
:100F900002976946C00600F0F9F91248124CC1C424
:100FA00080202060400060608000A0602020E06021
:100FB000C00120610C480C3C00F0DCF8002801D096
:100FC000FFF736FBAC60002211461120656200F08D
:100FD000EDFA112000F0DEFA07B0F0BD0074004019
:100FE0000010024030000240C80E0020FFB5044649
:100FF00081B0407900250A99012818D00126667130
:1010000002202071A2681F489062A2681E48D06228
:10101000A2681E4810632068026833031A43026006
:10102000002907D0042908D008290BD108E00220A4
:1010300005B0F0BD2568083504E025680C3501E0F1
:10104000256810352068016801277F033943016056
:10105000A0682A46049B039900F0B6F8206801684E
:1010600039430160A0682A46049B039900F0ACF85C
:1010700020680168029A9640314301600020607147
:10108000D6E70000290500085105000839050008C9
:1010900070B50024014620314A78022A03D0042189
:1010A0008163012416E0026813680E25AB431360C8
:1010B000026813685B085B0013600122056C13462D
:1010C000AB40C56B6B604A7000220A70416B00290F
:1010D00000D08847204670BDF0B4C16B0D68016830
:1010E0000C680422066C1346B3402B420DD06307F4
:1010F0000BD50B689B0602D40B6893430B60016C05
:101100008A40C16B4A60C16A19E00227B7400246B3
:101110002F4001232032002F15D0A70713D50C68CC
:10112000A40604D40C680A25AC430C605370036C0D
:1011300002219940C36B596000211170816A002916
:1011400016D0F0BC08470827B7402F4210D024071C
:101150000ED50C680E25AC430C60046C1946A140FA
:10116000C46B61608363537000211170016BE6E70B
:10117000F0BC704770B5040021D002212046203019
:1011800005464170226811680E48A36801406068F6
:1011900026691843E3683343184363691843A36916
:1011A0001843E3691843084310602046FFF7EAF943
:1011B0000021A163012068702970084670BD0120DC
:1011C00070BD00000FC0FFFFF8B504468C4620300C
:1011D00001780025012909D00126067041780027F1
:1011E000012905D0077002252846F8BD0220F8BD68
:1011F00002214170A7632068016849084900016025
:1012000061462046FFF7D0F9E06A002820680168AF
:1012100002D00E22114306E00A2211430160206829
:101220000168042291430160206801683143016034
:10123000DAE70000F8B5054623480F46017E01268F
:1012400001290BD0012101762868204C012807D004
:101250002046FFF73FFA002813D030E00220F8BD07
:101260002046FFF737FA002829D1FFF7E3F9204697
:10127000FFF730FA064616480169042291430161DE
:101280001DE00020C04338606C6812E02046FFF784
:10129000E3F90E48FFF71EFA06460D4802690221DF
:1012A0008A430261002E01D03C6008E001208002E8
:1012B0002418A868810268680818A042E6D8024885
:1012C000002101763046F8BD500F002050C30000C9
:1012D000002002400348016980221143016100207F
:1012E0007047000000200240F0B51FB407461A48BE
:1012F0000024017E15461E46012907D001210176F2
:101300001648FFF7E7F9002803D020E0022005B0D7
:10131000F0BD012F02D0022F00D004272201284661
:101320003146FEF72BFF81B2019862001018FFF7DB
:10133000A5F90A48FFF7CEF909490A69520852008F
:101340000A61002803D1641CE4B2BC42E6D302491E
:1013500000220A76DBE70000500F002050C3000097
:1013600000200240064900200A69120607D5054AF6
:101370004A60054A4A600969090600D5012070479C
:101380000020024023016745AB89EFCDF8B500236B
:101390008DE001249C40A44622407DD04C68022C64
:1013A00001D0122C0CD1DC08A40027183C6A5D0780
:1013B000ED0E0F26AE40B4430E69AE4026433E62AA
:1013C00005685E000324B4400F79A543BF07BF0F33
:1013D000B7402F4307604D68012D05D0022D03D083
:1013E000112D01D0122D0ED18568CF68A543B740CD
:1013F0002F43876047686546AF430D79ED06ED0FD3
:101400009D403D434560C568A5438C68B4402C436E
:10141000C4604C68E40049D5284CA56901263543D1
:10142000A561A4699D0834400094254CAD002F1996
:10143000BC689D072E0F0F25B540AC430925ED066E
:10144000A84201D100250FE01E4DA84201D101257F
:101450000AE01D4DA84201D1022505E01B4DA8421E
:1014600001D1032500E00525B5402543BD60184C9A
:1014700025684E689543F60300D5154325606568D9
:101480004E689543B60300D515436560A5684E6860
:101490009543F60202D500E008E01543A560E56833
:1014A0004E689543B60200D51543E5605B1C0A689B
:1014B0001446DC4000D06CE7F8BD0000001002408C
:1014C000000001400004004800080048000C0048EB
:1014D000000401400069084000D001207047002A44
:1014E00001D08161704781627047000001488068C7
:1014F0007047000034000020024881680278891893
:10150000816070473400002010B506480168102241
:1015100011430160002000F007F800F027F80020D8
:1015200010BD00000020024070B504460D4D7D2026
:101530002978C000FEF7DCFD01460B480068FEF785
:10154000D7FD00F04DFB002809D1042C07D2002262
:101550002146401E00F02AF800206C6070BD01207A
:1015600070BD0000340000204000002008B508488D
:101570008169012211438161816911400091C26931
:1015800001040A43C261C0690840009008BD000020
:1015900000100240002805DBC106C90E012088406A
:1015A000014908607047000000E100E010B501F05B
:1015B00069FB10BDF8B505460068394CC00352D52B
:1015C000E0690026C00007D4E16920040143E1611D
:1015D000E16901400126009132480168C90510D433
:1015E0000168821511430160FFF780FF074604E0A0
:1015F000FFF77CFFC01B642824D82A480068C00578
:10160000F6D5206A03273F02384020D06968394068
:1016100081421CD0206A226AB843012109040A438E
:101620002262226A8A4322622062C0070FD0FFF73B
:101630005DFF009008E0FFF759FF0099411A1A4832
:10164000814201D90320F8BD206A8007F3D5206AC2
:101650006968B84308432062002E04D0E169012084
:1016600000078143E1612878C00705D0206BA96895
:1016700080088000084320632878800605D5206B09
:1016800010218843E968084320632888400505D570
:10169000206B402188432969084320630020F8BD5E
:1016A000001002400070004088130000F8B50F469B
:1016B000060059D03A4D2868C007C00FB84209D279
:1016C000286840084000384328602868C007C00FD9
:1016D000B84249D13068334C81070CD5400704D556
:1016E000606807210902084360606068F021884350
:1016F000B168084360603078C00726D07068012860
:101700000ED0216802280ED0890700292CDA6168E2
:101710008908890001436160FFF7E8FE00900DE051
:1017200021688903F1E78901EFE7FFF7DFFE009900
:10173000411A1D48814201D90320F8BD60680C217F
:101740000840716889008842EFD12868C007C00F3F
:10175000B8420BD928684008400038432860286800
:10176000C007C00FB84201D00120F8BD3078400753
:1017700006D56068072109028843F1680843606064
:1017800000F028F86168094A0906090F515CC84051
:10179000074908600020FFF7C7FE0020F8BD0000E1
:1017A000002002400010024088130000DC2E0008D8
:1017B000400000200448054900684968044A49057A
:1017C000490F515CC84070474000002000100240A3
:1017D000EC2E000810B515A30FCB88B06C460FC4D3
:1017E00016A30FCB0FC4194A51680C200B460340B7
:1017F0001748042B02D0082B02D0401008B010BDAF
:101800008B021B0F6C46E45CD26A04AB1207120F0A
:101810009A5CC90305D500231946FEF77FFC2146D3
:1018200001E020460B4901F015FAE7E70203040541
:10183000060708090A0B0C0D0E0F10100102030415
:1018400005060708090A0B0C0D0E0F1000100240C8
:101850000024F40000093D00FEB5040070D020789B
:10186000DC4DC0074AD068680007800F012807D008
:1018700068680007800F022809D16868C00306D590
:10188000286880033AD560680028E7D036E06168B0
:10189000012914D001208004002901D0052914D089
:1018A0002A68012109048A432A6029688143296042
:1018B0006068002816D0FFF719FE06460EE028687B
:1018C0000121090408432860F2E7296801432960DF
:1018D000F5E7FFF70BFE801B64286ED828688003AD
:1018E000F7D50BE0FFF702FE064604E0FFF7FEFD2A
:1018F000801B6428F1D828688003F7D4207801265B
:10190000800700283CDA68680007800F07D0686805
:101910000007800F022809D16868C00306D4286830
:10192000800716D5E06801280AD112E0E068002897
:10193000286816D030432860FFF7D8FD074605E039
:1019400043E1FFF7D3FDC01B0228C6D828688007F3
:10195000F7D52868F82188432169C9000843286021
:101960000EE0400840002860FFF7C0FD074604E095
:10197000FFF7BCFDC01B0228AFD828688007F7D44A
:101980002078000722D5E0690028686A0ED030432D
:101990006862FFF7ABFD074604E0FFF7A7FDC01B39
:1019A00002289AD8686A8007F7D50FE040084000FF
:1019B0006862FFF79BFD074605E09DE0FFF796FD97
:1019C000C01B022889D8686A8007F7D420780427CA
:1019D0004007002860DA00200190E869C00008D4C0
:1019E000E969B8060143E961E96901400120009114
:1019F000019079480168C90511D401688215114325
:101A00000160FFF773FD009005E0FFF76FFD00999F
:101A1000401A642870D870480068C005F5D5A068E1
:101A200001280AD0002801D0052810D0286A4008D3
:101A300040002862286AB84301E0286A30432862DF
:101A4000A068002812D0FFF751FD00900AE0286A34
:101A500038432862F1E7FFF749FD0099411A5F48D2
:101A6000814249D8286A8007F5D50DE0FFF73EFD91
:101A7000009006E0FFF73AFD0099411A574881426D
:101A80003AD8286A8007F5D40198002804D0E9697B
:101A9000012000078143E9612078C00635D56069DF
:101AA00001280CD0401D686B23D038436863686BF5
:101AB000400840006863FFF719FD064622E0686BA6
:101AC00038436863686B30436863FFF70FFD064671
:101AD00004E0FFF70BFD801B02285BD8686B8007D2
:101AE000F7D5686BF8218843A169C900084368638A
:101AF0000BE0B8436863F4E74CE0FFF7F7FC801BAA
:101B0000022847D8686B8007F7D4206A00285ED087
:101B100069680907890F022942D001263606022882
:101B2000286805D0B0432860FFF7E0FC044633E0A6
:101B3000B0432860FFF7DAFC074604E0FFF7D6FC65
:101B4000C01B022826D828688001F7D4E86AE16A19
:101B5000000900010843E862616AA06A08436968F5
:101B60003D2212049143084368602868304328608E
:101B7000FFF7BCFC044604E0FFF7B8FC001B02289A
:101B800008D828688001F7D521E0FFF7AFFC001BDB
:101B9000022801D90320FEBD28688001F5D416E093
:101BA0000128F8D06868E96A01221204636A0240D9
:101BB0009A420AD10907E26A090F914205D10F2121
:101BC00089040840A16A884201D00120FEBD00209E
:101BD000FEBD0000001002400070004088130000AD
:101BE000094910B5401E884201D9012010BD074C9B
:101BF00060610321081F01F045F80020A061072063
:101C00002061002010BD0000FFFFFF0000E000E0A9
:101C100070477047F0B502462032137F012B21D068
:101C2000012515770223537706687468B368702717
:101C3000BC430F682743776000680B4CA04208D074
:101C4000AC07A04205D0094CA04202D0084CA042EB
:101C500004D180244968A34319438160557700204B
:101C60001077F0BD0220F0BD002C014000040040C0
:101C70000040014070B5040005D025462035687F3E
:101C8000002802D006E0012070BD00202877204601
:101C900000F00AF802206877211D206800F04CFD52
:101CA00001206877002070BD08B501220168920705
:101CB0000E48914207D1C16901221143C161C06937
:101CC0001040009008BD0A4A9142FBD1C269102120
:101CD0000A43C261C06900220840009011461120E9
:101CE000FFF764FC1120FFF755FC08BD001002400F
:101CF000001000400222014620314A7700688268C5
:101D000001235207520F062A02D002681A430260CA
:101D10004B7700207047F8B5054604462035287FEC
:101D2000012817D001262E77022068772268906854
:101D30007727FF23B8431B02984390600A68502A14
:101D400031D00EDC202A4BD006DC002A48D0102AE5
:101D50003AD145E00220F8BD302A41D0402A33D1A3
:101D600036E0602A27D0702A12D001200003121A10
:101D70002AD0824228D1CB684A688968206800F05E
:101D800025FD2068816801229203114381601BE0D8
:101D9000CB684A688968206800F018FD2168886867
:101DA0003843886010E0CA684968206800F021FD67
:101DB0005021206806E0CA684968206800F02AFDC2
:101DC0006021206800F00DFD6E7700202877F8BDB7
:101DD000CA684968206800F00CFD40212068F1E7DE
:101DE00011462068EEE7704770B504460068016947
:101DF0000025C9438907002915DBC168C943890744
:101E000011D4E91E016101202077206880698007D4
:101E1000204602D0FFF7E7FF04E000F096F82046E6
:101E200000F094F8257720680169C943490717D461
:101E3000C168C943490713D40421C9430161022081
:101E40002077206880698005800F204602D0FFF748
:101E5000CAFF04E000F079F8204600F077F8257713
:101E600020680169C943090716D4C168C943090735
:101E700012D40821C9430161042020772068C06979
:101E80008007204602D0FFF7AEFF04E000F05DF8C7
:101E9000204600F05BF8257720680169C943C90630
:101EA00017D4C168C943C90613D41021C9430161BD
:101EB000082020772068C0698005800F204602D066
:101EC000FFF791FF04E000F040F8204600F03EF8F4
:101ED000257720680169C943C90708D1C168C9438A
:101EE000C90704D1891E0161204600F030F820683E
:101EF0000169C943090609D4C168C943090605D463
:101F00008021C94301612046FFF782FE20680169F4
:101F1000C943490609D4C168C943490605D44021CB
:101F2000C9430161204600F013F820680169C943E4
:101F3000890609D4C168C943890605D42021C9434B
:101F400001612046FFF765FE70BD7047704770471E
:101F50007047704770470000F8B502680446D069C2
:101F600011689368524D05402E462025002E68D0FA
:101F7000DE07F60FFF2721370F40374375D0C7071D
:101F800006D0CF0504D501271762E26F3A43E26716
:101F9000820708D5DA0706D0276802223A62E26F84
:101FA00004273A43E267420708D5DA0706D02368D8
:101FB00004221A62E26F02231A43E267020709D57C
:101FC0000A462A40324305D0236808221A62E36F8A
:101FD0001343E367020508D54A0106D501222368A9
:101FE000D2021A62E26F2A43E267E26F002A30D01F
:101FF000800606D5880604D5216E002901D020462A
:102000008847E06F21688968490602D42821084280
:1020100024D0204600F0B0FC20688168490619D51C
:102020008168402291438160E06E002812D02149EE
:102030004163E06EFFF72CF800280AD0E06E416B98
:1020400006E0860611D58E060FD5216E1DE02046CE
:102050008847F8BD2046FFF77DFFF8BD2046FFF713
:1020600079FF0020E067F8BDFFE7C60208D55B02F4
:1020700006D50120000510622046FFF76AFFF2E74F
:10208000030605D50B0603D5616E0029DFD1EAE70B
:102090004006E8D54806E6D51368204640218B4324
:1020A000136065670021616600F0F0F8DBE700006F
:1020B0000F0800006529000810B5040003D0606F08
:1020C000002802D007E0012010BD0021702001553A
:1020D000204600F027F8242060672068016849083E
:1020E00049000160204600F0AFFC0128ECD0606A96
:1020F000002802D0204600F0A0FB20684168092299
:10210000D20291434160206881682A229143816014
:1021100020680168012211430160204600F0F2FBB3
:1021200010BD000070B586B0064614216846FEF763
:102130003DF82149306888423CD120498A69012014
:10214000800302438A618A69024005924A69C0009D
:1021500002434A614969002501400320059140027C
:102160000090022001900320039001200490092098
:1021700002956946C006FFF709F9124C1048206025
:102180001020A560606025616561A5618020E56122
:10219000E0602046FEF7EEFF002801D0FEF748FA87
:1021A000B466002211461B206662FFF7FFF91B2070
:1021B000FFF7F0F906B070BD003801400010024092
:1021C0001C0002400C0F0020F0B5836F202B49D17A
:1021D00000290AD0002A08D08568DC01A54206D172
:1021E0000369002B03D1CB0701D00120F0BD0346CA
:1021F00060331E7C012E35D001271F7441650146D6
:1022000040310A834A830022FF260266A54204D198
:102210000569002D22D1144D1EE0002D18D08A83AF
:10222000C2672221816701688D683D438D608168A6
:10223000A14202D10169002912D00C4901661A7429
:1022400000680168FF222132114301600020F0BDC7
:102250000569002D02D07F258D83E1E78E83DFE7BE
:102260000349EBE70220F0BDFF010000F12900085F
:102270009929000810B5012202490348FFF7A4FF7D
:1022800010BD0000B6090020040E00207047FEE7D4
:1022900010B50548C078062802D000F0E7F910BD57
:1022A000FEF71AF910BD0000D40B002010B5012173
:1022B0000170002341781C4600290BD082789300DE
:1022C0001B18521CD2B25B688270032A00D984703A
:1022D000491E41700470184610BD4278042A0ED27F
:1022E000C278920012185160C178491CC9B2C170FD
:1022F000032901D90021C1704178491C4170704700
:102300000EB500211748009101910291144A4160D5
:1023100002608160012204230C300EC00170417004
:102320008170C17080234360930283600346083349
:102330001A7101611838FEF74DFC002801D072B601
:10234000FEE702200090C00201900720029069463B
:102350000448FEF787FB002801D072B6FEE70EBDE9
:1023600000240140300D002030B587B014216846AC
:10237000FDF71CFF18484269012189050A434261A3
:1023800042690A400592426949110A434261426921
:102390000A400592426949000A43426140690F4D73
:1023A00008400590002208212846FFF798F80320EE
:1023B000002400900194694602942846FEF7E6FF47
:1023C0000820009001200190029469460394284659
:1023D000FEF7DCFF07B030BD0010024000040048EB
:1023E00010B586B00024009401211648019402948F
:1023F000039404948907059412C004608460124910
:10240000046141600838FFF735FC002801D072B63E
:10241000FEE701200003009069460A48FFF77BFCB5
:10242000002801D072B6FEE7202004A911C105489A
:102430000839FFF7EFFB002801D072B6FEE706B0BF
:1024400010BD0000840D0020C409000010B50C4828
:102450000A4901604B21C901416000218160C160CE
:1024600001618161C1610C22016242614162FFF739
:1024700023FE002801D072B6FEE710BD00380140EF
:10248000040E0020FEE7704710B502210348FFF755
:1024900021F8012801D10249087010BD000400484C
:1024A0002C00002070B52D4D6878322854D32C4E66
:1024B0007088002850D008284BD3C11FF93948D064
:1024C0003046FDF7C9FF274CFF2842D102E0708853
:1024D00005283ED32248FDF7BFFF6070FF28F6D0E5
:1024E000C0B2062835D11E48FDF7B6FFA070297886
:1024F00088422ED11A48FDF7AFFFE0701848FDF76B
:10250000ABFF20717288411C8A4201D3192802D97D
:1025100000F02CF81DE0002605E0FDF79DFFA11955
:10252000761CC871F6B22079B0420D48F5D8FDF797
:1025300093FF0C4C20342070FDF7B8FF21788842BF
:1025400002D000F083F804E0A878401CA870FFF7E0
:102550009FFE0348FDF77AFF70BD000029000020B0
:10256000CA0A0020D40B00207047000010B50548AF
:10257000C1780548C170022101711021417100F03C
:1025800019F810BDD40B0020F50B002010B5002267
:1025900008210248FEF7A3FF10BD00000004004818
:1025A00010B5012208210248FEF799FF10BD000076
:1025B0000004004870B50024FF212148FDF763FFA7
:1025C000641CE4B2042CF7D31F4D1E4C297801265D
:1025D00061701B48FDF757FFA1781948FDF753FFBD
:1025E000E1781748FDF74FFF2079022801D2022039
:1025F0002071C1B21248FDF746FF2878002802D0AA
:1026000060793043607161790D48FDF73CFFA17935
:102610000B48FDF738FF002506E06019C17908482E
:10262000FDF731FF6D1CEDB22079801EA842F4DC6D
:10263000FEF782F901460248FDF725FF70BD000054
:10264000240C0020F50B00202900002010B50548BF
:10265000C1780548C1700221017108214171FFF75D
:10266000A9FF10BDD40B0020F50B002010B50548C4
:10267000C1780548C1700221017104214171FFF741
:1026800099FF10BDD40B0020F50B002010B5FEF70C
:1026900033FF02480178491C017010BD2A00002058
:1026A00070B596B030216846FDF780FD00250C9589
:1026B0000D950E95142110A80F95FDF777FD0124B7
:1026C00011200594009001941020069000030990B9
:1026D000800002260A9008960B956846FFF7BCF822
:1026E000002801D072B6FEE707200C9080200E90E3
:1026F000C0000F900D9601210CA8FEF7D7FF00280F
:1027000001D072B6FEE710A812951094FEF752FFA2
:10271000002801D072B6FEE716B070BD7047000009
:1027200010B50348FFF760FB0248FEF7E3FB10BD5E
:10273000C40D0020700D0020F0B502681D4B01246F
:10274000A4071D4D984203D0A04201D0A84203D156
:102750007026B2434E683243184E194F98420DD03E
:10276000A0420BD0A84209D0164CA04206D0B042DD
:1027700004D0B84202D0144CA04204D10324240255
:10278000A243CC6822438024A2434C6922430260C6
:102790008A68C2620A688262984206D0B04204D057
:1027A000B84202D0084A904201D10969016301216F
:1027B0004161F0BD002C0140000400400040014098
:1027C00000440140002000400048014030B58468CA
:1027D000FF252D021B021343AC430B4323438360AD
:1027E00030BD826870239A430A4307210A438260FE
:1027F000704730B5036A046A64086400046284693F
:10280000F025AC43120122430A24A3430B43826107
:10281000036230BD30B5036A1024A34303628469A8
:10282000036A0F252D031203AC432243A024A343C4
:10283000090119438261016230BD10B5818CC9075D
:1028400007D001684A6801235B049A43836A1A43EC
:102850004A60818C890707D501684A6801231B04F7
:102860009A43C36A1A434A60818C490707D50168B5
:102870004A6801239B049A43036B1A434A60818C84
:10288000090707D501684A680123DB039A43436BB4
:102890001A434A60818CC90607D5026891680123F2
:1028A0001B039943836B19439160818C890607D57B
:1028B00001688A6801235B039A43C36B1A438A60E9
:1028C000818C490612D503685A6801210905046CF8
:1028D0008A4322435A60026C8A4207D102685168D7
:1028E00003235B059943436C19435160818C0906AE
:1028F00007D501684A680123DB04806C9A430243D0
:102900004A6010BDF8B500260446C667FEF7EEFD26
:10291000054620680068124F000709D501212B46A3
:10292000002249052046009700F032F900280DD119
:102930002068006840070BD501212B46002289053D
:102940002046009700F024F9002801D00320F8BDAC
:1029500020206067A067603426740020F8BD000066
:10296000FFFFFF0110B5406A0022014640314A8353
:102970004A82FFF7EFFA10BD01680A68FF2321338E
:102980009A430A6001688A68520852008A602021CE
:10299000816700210166704710B5014640318B8B7D
:1029A000846F0268222C04D090690821084390614A
:1029B00010BD928C446D1A402280426D921C42657B
:1029C0004A8B521E4A83498B0029F1D101680A685B
:1029D000FF2321339A430A6001688A685208520033
:1029E0008A602021816700210166FFF743FC10BD4A
:1029F00010B5014640318B8B846F0268222C04D0C5
:102A0000906908210843906110BD928C1A40436D73
:102A10001A70426D521C42654A8B521E4A83498B82
:102A20000029F1D101680A68FF2321339A430A6023
:102A300001688A68520852008A602021816700215B
:102A40000166FFF717FC10BD70B504468068216968
:102A5000E26908436169002511432268084311684F
:102A6000444B194001431160216848680322120356
:102A70009043E26810434860A169206A22680843D5
:102A800091680B231B029943014391603A492068E6
:102A9000884210D13948006B8007800F11D001287F
:102AA00005D0022805D003280AD1022009E004201D
:102AB00007E0082005E03249884201D1002000E00B
:102AC00010200122E169D2032E4E914228D1002824
:102AD00006D0022807D0042817D0082844D11AE0CD
:102AE000FEF768FE13E06168274A48088018FDF782
:102AF000FFFA80B201461039B14235D82149491C4C
:102B000001400007400F084321E0FEF763FE6168C3
:102B100040004A08EAE76168012248081204E5E734
:102B2000002806D0022807D0042813D008281BD17B
:102B300016E0FEF73FFE0FE06168144A480811E016
:102B4000FDF7D6FA80B201461039B1420CD821689F
:102B5000C8600AE0FEF73EFE61684A081018EFE719
:102B6000616848088018EBE7012500202066606650
:102B7000284670BDF369FFFF003801400010024095
:102B800000440040EFFF00000024F40000127A002F
:102B9000FFB581B005460F46044660350A9E38E011
:102BA000701C36D0FEF7A2FC0499401AB04221D81E
:102BB000002E1FD02068016849072AD5C069C0438C
:102BC000000526D401202168C0020862206801683F
:102BD000FF22A132914301602068816849084900C1
:102BE000816020206067A067E067002028740320D0
:102BF00005B0F0BD20680168FF22A1329143016059
:102C00002068816849084900816020206067A067CA
:102C1000EBE72068C1693846884305D00021039856
:102C20008142BDD00020E3E70121F8E710B502485A
:102C3000FFF792F910BD0000040E002010B501222C
:102C400002490348FFF7C0FA10BD0000B609002092
:102C5000040E0020F8B5040C8BB2264682B25E4307
:102C60000D0C1046370C5843360480190021794169
:102C700016466E43370C36048019794126466E435A
:102C80008919F8BD8307FF22DB0E9A408907090ED8
:102C90009940002808DB830809489B001B18186826
:102CA00090430843186070470007000F08388308F6
:102CB00004489B001B18D86990430843D8617047AB
:102CC00000E400E000ED00E002E008C8121F08C1C7
:102CD000002AFAD170477047002001E001C1121F9D
:102CE000002AFBD1704700001CB5FEF70DFCFFF772
:102CF000D7FCFFF739FB3348416901221143416199
:102D0000406910400022009011460920FEF74EFC59
:102D10000920FEF73FFC002211460A20FEF746FC80
:102D20000A20FEF737FC0024284900942648019425
:102D300008600846FEF7F6F8002801D072B6FEE7F4
:102D4000042000900022694601942048FEF796F87E
:102D5000002801D072B6FEE71C481D49009454308B
:102D6000019412C004601B49046141600838FEF7F9
:102D700081FF002801D072B6FEE7202000901348A2
:102D8000694601945430FEF745FF002801D072B621
:102D9000FEE7FFF75BFBFFF7B3FAFFF721FBFDF759
:102DA000C1FCFDF761FDFFF76FFBFFF747FF0A4C22
:102DB000FDF784FDFDF70CFC2068401C2060FFF748
:102DC00071FBF5E70010024000740040700D002018
:102DD00000100040710200003000002000020305D6
:102DE00007080A0C0D0F1112141517191A1C1D1FB4
:102DF000202223252627292A2B2D2E2F303133342C
:102E000035363738393A3B3B3C3D3E3E3F4040410A
:102E1000414242434343444444444444444444447C
:102E20004444444343434242414140403F3E3E3D8F
:102E30003C3C3B3A3938373635343331302F2E2D40
:102E40002B2A292726252322201F1D1C1A19171576
:102E50001412110F0E0C0A080705030200FEFDFBF9
:102E6000F9F8F6F4F3F1EFEEECEBE9E7E6E4E3E191
:102E7000E0DEDDDBDAD9D7D6D5D3D2D1D0CFCDCCF9
:102E8000CBCAC9C8C7C6C5C5C4C3C2C2C1C0C0BFFA
:102E9000BFBEBEBDBDBDBCBCBCBCBCBCBCBCBCBC68
:102EA000BCBCBCBDBDBDBEBEBFBFC0C0C1C2C2C335
:102EB000C4C4C5C6C7C8C9CACBCCCDCFD0D1D2D364
:102EC000D5D6D7D9DADBDDDEE0E1E3E4E6E7E9EB0E
:102ED000ECEEEFF1F2F4F6F8F9FBFDFE0000000075
:102EE00000000000010203040607080900000000BA
:102EF00001020304142F0008000000204400000019
:102F0000C82C0008582F0008440000202C13000093
:102F1000D82C000802000000200200000000000081
:102F200000000000000000000000000000000000A1
:102F30000000000000000000000000000000000091
:102F4000000000000000000001000000040000007C
:082F50000000000000127A00ED
:04000005080000BD32
:00000001FF
